{
  "transactions": [
    {
      "hash": "0xa2021efab8b76197a5de45a58577097ec9f7872bdfeaa636ce2346a3faa59db1",
      "transactionType": "CALL",
      "contractName": "OnftAdapter",
      "contractAddress": "0x8da2919ba1df8b71318352be9922beeeda27f3c7",
      "function": "setPeer(uint32,bytes32)",
      "arguments": [
        "40231",
        "0x000000000000000000000000e94c63ddbf3b8137bf3b426d05663a9c215609ae"
      ],
      "transaction": {
        "from": "0x380b2bbc84629128faae8664327780465b90601d",
        "to": "0x8da2919ba1df8b71318352be9922beeeda27f3c7",
        "gas": "0xb22a",
        "value": "0x0",
        "input": "0x3400288b0000000000000000000000000000000000000000000000000000000000009d27000000000000000000000000e94c63ddbf3b8137bf3b426d05663a9c215609ae",
        "nonce": "0x11",
        "chainId": "0x14a34"
      },
      "additionalContracts": [],
      "isFixedGasLimit": false
    }
  ],
  "receipts": [
    {
      "status": "0x1",
      "cumulativeGasUsed": "0x5ce61c",
      "logs": [
        {
          "address": "0x8da2919ba1df8b71318352be9922beeeda27f3c7",
          "topics": [
            "0x238399d427b947898edb290f5ff0f9109849b1c3ba196a42e35f00c50a54b98b"
          ],
          "data": "0x0000000000000000000000000000000000000000000000000000000000009d27000000000000000000000000e94c63ddbf3b8137bf3b426d05663a9c215609ae",
          "blockHash": "0x4972b40a1f65afe358811152f2b20231f58807ecde9fbe64702ba5228ea41c01",
          "blockNumber": "0x15f2db8",
          "transactionHash": "0xa2021efab8b76197a5de45a58577097ec9f7872bdfeaa636ce2346a3faa59db1",
          "transactionIndex": "0x1b",
          "logIndex": "0x6c",
          "removed": false
        }
      ],
      "logsBloom": "0x00000000000000000000000000000000000000000000000000000000000000000000000000000000000000000000000000000000000000000800000000000000000000000000000000000000000000000080000000000000000000000000000000000000000000000000000000000000000000000000000000000000000000000000000000000000000000000000000000000000000000000000000000000000000000000000000000000000000000000000000000000000000002000000000000000000000000000000000000000000000000000000000000040000000000000000000000000000000000000001000000000000000000000000000000001000",
      "type": "0x2",
      "transactionHash": "0xa2021efab8b76197a5de45a58577097ec9f7872bdfeaa636ce2346a3faa59db1",
      "transactionIndex": "0x1b",
      "blockHash": "0x4972b40a1f65afe358811152f2b20231f58807ecde9fbe64702ba5228ea41c01",
      "blockNumber": "0x15f2db8",
      "gasUsed": "0x79d3",
      "effectiveGasPrice": "0x20e18",
      "from": "0x380b2bbc84629128faae8664327780465b90601d",
      "to": "0x8da2919ba1df8b71318352be9922beeeda27f3c7",
      "contractAddress": null,
      "l1BaseFeeScalar": "0x44d",
      "l1BlobBaseFee": "0x1",
      "l1BlobBaseFeeScalar": "0xa118b",
      "l1Fee": "0x2bf2eae8e6",
      "l1GasPrice": "0x18f2c2bbde",
      "l1GasUsed": "0x640"
    }
  ],
  "libraries": [],
  "pending": [],
  "returns": {},
  "timestamp": 1741797970,
  "chain": 84532,
  "commit": "74f7a03"
}