{
  "transactions": [
    {
      "hash": "0x61f07d5375c1a38f610c14d4fe4b5f900360ea583087e41375a1717fb0ca0a84",
      "transactionType": "CALL",
      "contractName": "OnftAdapter",
      "contractAddress": "0x8da2919ba1df8b71318352be9922beeeda27f3c7",
      "function": "setPeer(uint32,bytes32)",
      "arguments": [
        "40231",
        "0x0000000000000000000000006f4d4cfd81350fcb76328cd51b2a801365fa7600"
      ],
      "transaction": {
        "from": "0x380b2bbc84629128faae8664327780465b90601d",
        "to": "0x8da2919ba1df8b71318352be9922beeeda27f3c7",
        "gas": "0xa833",
        "value": "0x0",
        "input": "0x3400288b0000000000000000000000000000000000000000000000000000000000009d270000000000000000000000006f4d4cfd81350fcb76328cd51b2a801365fa7600",
        "nonce": "0xe",
        "chainId": "0x14a34"
      },
      "additionalContracts": [],
      "isFixedGasLimit": false
    }
  ],
  "receipts": [
    {
      "status": "0x1",
      "cumulativeGasUsed": "0x7329e1",
      "logs": [
        {
          "address": "0x8da2919ba1df8b71318352be9922beeeda27f3c7",
          "topics": [
            "0x238399d427b947898edb290f5ff0f9109849b1c3ba196a42e35f00c50a54b98b"
          ],
          "data": "0x0000000000000000000000000000000000000000000000000000000000009d270000000000000000000000006f4d4cfd81350fcb76328cd51b2a801365fa7600",
          "blockHash": "0xc0d458e629237c0dcf948205d1c003d0e90f13467595c6ceeec216efeb7c683a",
          "blockNumber": "0x15f2b70",
          "transactionHash": "0x61f07d5375c1a38f610c14d4fe4b5f900360ea583087e41375a1717fb0ca0a84",
          "transactionIndex": "0x31",
          "logIndex": "0xbb",
          "removed": false
        }
      ],
      "logsBloom": "0x00000000000000000000000000000000000000000000000000000000000000000000000000000000000000000000000000000000000000000800000000000000000000000000000000000000000000000080000000000000000000000000000000000000000000000000000000000000000000000000000000000000000000000000000000000000000000000000000000000000000000000000000000000000000000000000000000000000000000000000000000000000000002000000000000000000000000000000000000000000000000000000000000040000000000000000000000000000000000000001000000000000000000000000000000001000",
      "type": "0x2",
      "transactionHash": "0x61f07d5375c1a38f610c14d4fe4b5f900360ea583087e41375a1717fb0ca0a84",
      "transactionIndex": "0x31",
      "blockHash": "0xc0d458e629237c0dcf948205d1c003d0e90f13467595c6ceeec216efeb7c683a",
      "blockNumber": "0x15f2b70",
      "gasUsed": "0x79c7",
      "effectiveGasPrice": "0x239db",
      "from": "0x380b2bbc84629128faae8664327780465b90601d",
      "to": "0x8da2919ba1df8b71318352be9922beeeda27f3c7",
      "contractAddress": null,
      "l1BaseFeeScalar": "0x44d",
      "l1BlobBaseFee": "0x1",
      "l1BlobBaseFeeScalar": "0xa118b",
      "l1Fee": "0x1902875f60",
      "l1GasPrice": "0xe327f11b9",
      "l1GasUsed": "0x640"
    }
  ],
  "libraries": [],
  "pending": [],
  "returns": {},
  "timestamp": 1741796801,
  "chain": 84532,
  "commit": "74f7a03"
}