{
  "transactions": [
    {
      "hash": "0x612aaba7777bf11f73bfb9b6583e8366abeeec5f694fc5041a355ffe2adba1f9",
      "transactionType": "CALL",
      "contractName": null,
      "contractAddress": "0x6f4d4cfd81350fcb76328cd51b2a801365fa7600",
      "function": "approve(address,uint256)",
      "arguments": [
        "0x8Da2919bA1DF8B71318352bE9922BEEeDa27f3C7",
        "119"
      ],
      "transaction": {
        "from": "0x380b2bbc84629128faae8664327780465b90601d",
        "to": "0x6f4d4cfd81350fcb76328cd51b2a801365fa7600",
        "gas": "0x110c6",
        "value": "0x0",
        "input": "0x095ea7b30000000000000000000000008da2919ba1df8b71318352be9922beeeda27f3c70000000000000000000000000000000000000000000000000000000000000077",
        "nonce": "0xf",
        "chainId": "0x14a34"
      },
      "additionalContracts": [],
      "isFixedGasLimit": false
    },
    {
      "hash": "0x965b7c245a431a59d74ca2d9c2453fc69189b8c372a791eaa87e04f84bbbe81b",
      "transactionType": "CALL",
      "contractName": "OnftAdapter",
      "contractAddress": "0x8da2919ba1df8b71318352be9922beeeda27f3c7",
      "function": "send((uint32,bytes32,uint256,bytes,bytes,bytes),(uint256,uint256),address)",
      "arguments": [
        "(40231, 0x000000000000000000000000380b2bbc84629128faae8664327780465b90601d, 119, 0x000301001101000000000000000000000000000493e0, 0x, 0x)",
        "(161020808040022, 0)",
        "0x5b73C5498c1E3b4dbA84de0F1833c4a029d90519"
      ],
      "transaction": {
        "from": "0x380b2bbc84629128faae8664327780465b90601d",
        "to": "0x8da2919ba1df8b71318352be9922beeeda27f3c7",
        "gas": "0x5d0d7",
        "value": "0x927294108e56",
        "input": "0x21eb730b00000000000000000000000000000000000000000000000000000000000000800000000000000000000000000000000000000000000000000000927294108e5600000000000000000000000000000000000000000000000000000000000000000000000000000000000000005b73c5498c1e3b4dba84de0f1833c4a029d905190000000000000000000000000000000000000000000000000000000000009d27000000000000000000000000380b2bbc84629128faae8664327780465b90601d000000000000000000000000000000000000000000000000000000000000007700000000000000000000000000000000000000000000000000000000000000c0000000000000000000000000000000000000000000000000000000000000010000000000000000000000000000000000000000000000000000000000000001200000000000000000000000000000000000000000000000000000000000000016000301001101000000000000000000000000000493e00000000000000000000000000000000000000000000000000000000000000000000000000000000000000000000000000000000000000000000000000000000000000000000000000000",
        "nonce": "0x10",
        "chainId": "0x14a34"
      },
      "additionalContracts": [],
      "isFixedGasLimit": false
    }
  ],
  "receipts": [
    {
      "status": "0x1",
      "cumulativeGasUsed": "0x7dea9a",
      "logs": [
        {
          "address": "0x6f4d4cfd81350fcb76328cd51b2a801365fa7600",
          "topics": [
            "0x8c5be1e5ebec7d5bd14f71427d1e84f3dd0314c0f7b2291e5b200ac8c7c3b925",
            "0x000000000000000000000000380b2bbc84629128faae8664327780465b90601d",
            "0x0000000000000000000000008da2919ba1df8b71318352be9922beeeda27f3c7",
            "0x0000000000000000000000000000000000000000000000000000000000000077"
          ],
          "data": "0x",
          "blockHash": "0x76eb650bd9a2152fcdfce713b63a570fafd07fb37a0944d38332d23f9483e288",
          "blockNumber": "0x15f2ba0",
          "transactionHash": "0x612aaba7777bf11f73bfb9b6583e8366abeeec5f694fc5041a355ffe2adba1f9",
          "transactionIndex": "0x30",
          "logIndex": "0x9d",
          "removed": false
        }
      ],
      "logsBloom": "0x00000000000000000000000000000000000000000000000000000000000000000000000000000000000000000000000000000000000000000000000000a00000000000000000040000000000000000010000000000000000000000000000000000000000000040000000000000000000000000000000000000000000000000000000000000000000000000000000000000000400040000000000000000000000020000100008000000000000000000000000000000000000000000000000000000000000000000100000000000000000002000000000000000000000000000020010000000000000000000000000000000000020000000000000000000000000",
      "type": "0x2",
      "transactionHash": "0x612aaba7777bf11f73bfb9b6583e8366abeeec5f694fc5041a355ffe2adba1f9",
      "transactionIndex": "0x30",
      "blockHash": "0x76eb650bd9a2152fcdfce713b63a570fafd07fb37a0944d38332d23f9483e288",
      "blockNumber": "0x15f2ba0",
      "gasUsed": "0xc57d",
      "effectiveGasPrice": "0x23666",
      "from": "0x380b2bbc84629128faae8664327780465b90601d",
      "to": "0x6f4d4cfd81350fcb76328cd51b2a801365fa7600",
      "contractAddress": null,
      "l1BaseFeeScalar": "0x44d",
      "l1BlobBaseFee": "0x1",
      "l1BlobBaseFeeScalar": "0xa118b",
      "l1Fee": "0x198a190cea",
      "l1GasPrice": "0xe7f744b50",
      "l1GasUsed": "0x640"
    },
    {
      "status": "0x1",
      "cumulativeGasUsed": "0x81e49d",
      "logs": [
        {
          "address": "0x6f4d4cfd81350fcb76328cd51b2a801365fa7600",
          "topics": [
            "0xddf252ad1be2c89b69c2b068fc378daa952ba7f163c4a11628f55a4df523b3ef",
            "0x000000000000000000000000380b2bbc84629128faae8664327780465b90601d",
            "0x0000000000000000000000008da2919ba1df8b71318352be9922beeeda27f3c7",
            "0x0000000000000000000000000000000000000000000000000000000000000077"
          ],
          "data": "0x",
          "blockHash": "0x76eb650bd9a2152fcdfce713b63a570fafd07fb37a0944d38332d23f9483e288",
          "blockNumber": "0x15f2ba0",
          "transactionHash": "0x965b7c245a431a59d74ca2d9c2453fc69189b8c372a791eaa87e04f84bbbe81b",
          "transactionIndex": "0x31",
          "logIndex": "0x9e",
          "removed": false
        },
        {
          "address": "0xc1868e054425d378095a003ecba3823a5d0135c9",
          "topics": [
            "0x61ed099e74a97a1d7f8bb0952a88ca8b7b8ebd00c126ea04671f92a81213318a"
          ],
          "data": "0x0000000000000000000000008a3d588d9f6ac041476b094f97ff94ec30169d3d000000000000000000000000000000000000000000000000000084a28aa6c052",
          "blockHash": "0x76eb650bd9a2152fcdfce713b63a570fafd07fb37a0944d38332d23f9483e288",
          "blockNumber": "0x15f2ba0",
          "transactionHash": "0x965b7c245a431a59d74ca2d9c2453fc69189b8c372a791eaa87e04f84bbbe81b",
          "transactionIndex": "0x31",
          "logIndex": "0x9f",
          "removed": false
        },
        {
          "address": "0xc1868e054425d378095a003ecba3823a5d0135c9",
          "topics": [
            "0x07ea52d82345d6e838192107d8fd7123d9c2ec8e916cd0aad13fd2b60db24644"
          ],
          "data": "0x000000000000000000000000000000000000000000000000000000000000006000000000000000000000000000000000000000000000000000000000000000a000000000000000000000000000000000000000000000000000000000000000c00000000000000000000000000000000000000000000000000000000000000001000000000000000000000000e1a12515f9ab2764b887bf60b923ca494ebbb2d60000000000000000000000000000000000000000000000000000000000000000000000000000000000000000000000000000000000000000000000000000000100000000000000000000000000000000000000000000000000000dd00969ce04",
          "blockHash": "0x76eb650bd9a2152fcdfce713b63a570fafd07fb37a0944d38332d23f9483e288",
          "blockNumber": "0x15f2ba0",
          "transactionHash": "0x965b7c245a431a59d74ca2d9c2453fc69189b8c372a791eaa87e04f84bbbe81b",
          "transactionIndex": "0x31",
          "logIndex": "0xa0",
          "removed": false
        },
        {
          "address": "0x6edce65403992e310a62460808c4b910d972f10f",
          "topics": [
            "0x1ab700d4ced0c005b164c0f789fd09fcbb0156d4c2041b8a3bfbcd961cd1567f"
          ],
          "data": "0x00000000000000000000000000000000000000000000000000000000000000600000000000000000000000000000000000000000000000000000000000000140000000000000000000000000c1868e054425d378095a003ecba3823a5d0135c900000000000000000000000000000000000000000000000000000000000000b101000000000000000100009d350000000000000000000000008da2919ba1df8b71318352be9922beeeda27f3c700009d270000000000000000000000006f4d4cfd81350fcb76328cd51b2a801365fa7600e20758f23082e5689000966e9ccecc26f04afc8ad495d5ed2344599a7a07c441000000000000000000000000380b2bbc84629128faae8664327780465b90601d00000000000000000000000000000000000000000000000000000000000000770000000000000000000000000000000000000000000000000000000000000000000000000000000000000000000016000301001101000000000000000000000000000493e000000000000000000000",
          "blockHash": "0x76eb650bd9a2152fcdfce713b63a570fafd07fb37a0944d38332d23f9483e288",
          "blockNumber": "0x15f2ba0",
          "transactionHash": "0x965b7c245a431a59d74ca2d9c2453fc69189b8c372a791eaa87e04f84bbbe81b",
          "transactionIndex": "0x31",
          "logIndex": "0xa1",
          "removed": false
        },
        {
          "address": "0x8da2919ba1df8b71318352be9922beeeda27f3c7",
          "topics": [
            "0x986156872b2ee0022b9585231dbbfde457f87f8a16b6c45e1a81c54c4ad8351f",
            "0xe20758f23082e5689000966e9ccecc26f04afc8ad495d5ed2344599a7a07c441",
            "0x000000000000000000000000380b2bbc84629128faae8664327780465b90601d"
          ],
          "data": "0x0000000000000000000000000000000000000000000000000000000000009d270000000000000000000000000000000000000000000000000000000000000077",
          "blockHash": "0x76eb650bd9a2152fcdfce713b63a570fafd07fb37a0944d38332d23f9483e288",
          "blockNumber": "0x15f2ba0",
          "transactionHash": "0x965b7c245a431a59d74ca2d9c2453fc69189b8c372a791eaa87e04f84bbbe81b",
          "transactionIndex": "0x31",
          "logIndex": "0xa2",
          "removed": false
        }
      ],
      "logsBloom": "0x00000000000000000000000000000000000000000000000000000000000000000000000000000200200000000080000000000000000000000000000000800000000200000000040000000008000000010080000000000000000000020000000000000000000040008200000000000000080000000000000000000010000000000000000000000020000000080000400000000400040000000000000000400000000000108008000000100000000000000000000000400000000440000000000080000002000000100000000000000000002000000000000000000000000000020000040000000000000000000001002000000020000200000000000000001000",
      "type": "0x2",
      "transactionHash": "0x965b7c245a431a59d74ca2d9c2453fc69189b8c372a791eaa87e04f84bbbe81b",
      "transactionIndex": "0x31",
      "blockHash": "0x76eb650bd9a2152fcdfce713b63a570fafd07fb37a0944d38332d23f9483e288",
      "blockNumber": "0x15f2ba0",
      "gasUsed": "0x3fa03",
      "effectiveGasPrice": "0x23666",
      "from": "0x380b2bbc84629128faae8664327780465b90601d",
      "to": "0x8da2919ba1df8b71318352be9922beeeda27f3c7",
      "contractAddress": null,
      "l1BaseFeeScalar": "0x44d",
      "l1BlobBaseFee": "0x1",
      "l1BlobBaseFeeScalar": "0xa118b",
      "l1Fee": "0x2c74bac93e",
      "l1GasPrice": "0xe7f744b50",
      "l1GasUsed": "0xae1"
    }
  ],
  "libraries": [],
  "pending": [],
  "returns": {},
  "timestamp": 1741796897,
  "chain": 84532,
  "commit": "74f7a03"
}