{
  "transactions": [
    {
      "hash": "0x99c7574446ba2a7de1a968e14d36e46c0ff83a22e8982bde792e84c9a9f6d2f4",
      "transactionType": "CALL",
      "contractName": null,
      "contractAddress": "0x8da2919ba1df8b71318352be9922beeeda27f3c7",
      "function": "setPeer(uint32,bytes32)",
      "arguments": [
        "40231",
        "0x000000000000000000000000e94c63ddbf3b8137bf3b426d05663a9c215609ae"
      ],
      "transaction": {
        "from": "0x380b2bbc84629128faae8664327780465b90601d",
        "to": "0x8da2919ba1df8b71318352be9922beeeda27f3c7",
        "gas": "0x10487",
        "value": "0x0",
        "input": "0x3400288b0000000000000000000000000000000000000000000000000000000000009d27000000000000000000000000e94c63ddbf3b8137bf3b426d05663a9c215609ae",
        "nonce": "0xb",
        "chainId": "0x14a34"
      },
      "additionalContracts": [],
      "isFixedGasLimit": false
    }
  ],
  "receipts": [
    {
      "status": "0x1",
      "cumulativeGasUsed": "0x325187",
      "logs": [
        {
          "address": "0x8da2919ba1df8b71318352be9922beeeda27f3c7",
          "topics": [
            "0x238399d427b947898edb290f5ff0f9109849b1c3ba196a42e35f00c50a54b98b"
          ],
          "data": "0x0000000000000000000000000000000000000000000000000000000000009d27000000000000000000000000e94c63ddbf3b8137bf3b426d05663a9c215609ae",
          "blockHash": "0xffdd096014ed16ca19a882459552e5dbf3eeb9efcb3f1600441193a5572b5c33",
          "blockNumber": "0x15bbb55",
          "transactionHash": "0x99c7574446ba2a7de1a968e14d36e46c0ff83a22e8982bde792e84c9a9f6d2f4",
          "transactionIndex": "0x12",
          "logIndex": "0x59",
          "removed": false
        }
      ],
      "logsBloom": "0x00000000000000000000000000000000000000000000000000000000000000000000000000000000000000000000000000000000000000000800000000000000000000000000000000000000000000000080000000000000000000000000000000000000000000000000000000000000000000000000000000000000000000000000000000000000000000000000000000000000000000000000000000000000000000000000000000000000000000000000000000000000000002000000000000000000000000000000000000000000000000000000000000040000000000000000000000000000000000000001000000000000000000000000000000001000",
      "type": "0x2",
      "transactionHash": "0x99c7574446ba2a7de1a968e14d36e46c0ff83a22e8982bde792e84c9a9f6d2f4",
      "transactionIndex": "0x12",
      "blockHash": "0xffdd096014ed16ca19a882459552e5dbf3eeb9efcb3f1600441193a5572b5c33",
      "blockNumber": "0x15bbb55",
      "gasUsed": "0xbc9f",
      "effectiveGasPrice": "0xf43fb",
      "from": "0x380b2bbc84629128faae8664327780465b90601d",
      "to": "0x8da2919ba1df8b71318352be9922beeeda27f3c7",
      "contractAddress": null,
      "l1BaseFeeScalar": "0x44d",
      "l1BlobBaseFee": "0x1",
      "l1BlobBaseFeeScalar": "0xa118b",
      "l1Fee": "0x1fc319",
      "l1GasPrice": "0x12079a",
      "l1GasUsed": "0x640"
    }
  ],
  "libraries": [],
  "pending": [],
  "returns": {},
  "timestamp": 1741346186,
  "chain": 84532,
  "commit": "74f7a03"
}