{
  "transactions": [
    {
      "hash": "0x34053758ec376a297a1cc328ee663807b275f95609aefdbbe9aebd0b29ef161f",
      "transactionType": "CALL",
      "contractName": null,
      "contractAddress": "0x8da2919ba1df8b71318352be9922beeeda27f3c7",
      "function": "setPeer(uint32,bytes32)",
      "arguments": [
        "40362",
        "0x000000000000000000000000e94c63ddbf3b8137bf3b426d05663a9c215609ae"
      ],
      "transaction": {
        "from": "0x380b2bbc84629128faae8664327780465b90601d",
        "to": "0x8da2919ba1df8b71318352be9922beeeda27f3c7",
        "gas": "0x10487",
        "value": "0x0",
        "input": "0x3400288b0000000000000000000000000000000000000000000000000000000000009daa000000000000000000000000e94c63ddbf3b8137bf3b426d05663a9c215609ae",
        "nonce": "0xa",
        "chainId": "0x14a34"
      },
      "additionalContracts": [],
      "isFixedGasLimit": false
    }
  ],
  "receipts": [
    {
      "status": "0x1",
      "cumulativeGasUsed": "0x44484e",
      "logs": [
        {
          "address": "0x8da2919ba1df8b71318352be9922beeeda27f3c7",
          "topics": [
            "0x238399d427b947898edb290f5ff0f9109849b1c3ba196a42e35f00c50a54b98b"
          ],
          "data": "0x0000000000000000000000000000000000000000000000000000000000009daa000000000000000000000000e94c63ddbf3b8137bf3b426d05663a9c215609ae",
          "blockHash": "0xdd38a347b4b22c53e7ce8f05618ea8e156f2ea1d6dbf0d0a610de66f030dcee4",
          "blockNumber": "0x15b3ae5",
          "transactionHash": "0x34053758ec376a297a1cc328ee663807b275f95609aefdbbe9aebd0b29ef161f",
          "transactionIndex": "0x1b",
          "logIndex": "0x55",
          "removed": false
        }
      ],
      "logsBloom": "0x00000000000000000000000000000000000000000000000000000000000000000000000000000000000000000000000000000000000000000800000000000000000000000000000000000000000000000080000000000000000000000000000000000000000000000000000000000000000000000000000000000000000000000000000000000000000000000000000000000000000000000000000000000000000000000000000000000000000000000000000000000000000002000000000000000000000000000000000000000000000000000000000000040000000000000000000000000000000000000001000000000000000000000000000000001000",
      "type": "0x2",
      "transactionHash": "0x34053758ec376a297a1cc328ee663807b275f95609aefdbbe9aebd0b29ef161f",
      "transactionIndex": "0x1b",
      "blockHash": "0xdd38a347b4b22c53e7ce8f05618ea8e156f2ea1d6dbf0d0a610de66f030dcee4",
      "blockNumber": "0x15b3ae5",
      "gasUsed": "0xbc9f",
      "effectiveGasPrice": "0xf4409",
      "from": "0x380b2bbc84629128faae8664327780465b90601d",
      "to": "0x8da2919ba1df8b71318352be9922beeeda27f3c7",
      "contractAddress": null,
      "l1BaseFeeScalar": "0x44d",
      "l1BlobBaseFee": "0x1",
      "l1BlobBaseFeeScalar": "0xa118b",
      "l1Fee": "0x55832de",
      "l1GasPrice": "0x308add2",
      "l1GasUsed": "0x640"
    }
  ],
  "libraries": [],
  "pending": [],
  "returns": {},
  "timestamp": 1741280426,
  "chain": 84532,
  "commit": "74f7a03"
}