{
  "transactions": [
    {
      "hash": "0xe9aa42dd068ffe5c0f4a5c6eca0568e193e62c1ba8d7cfc51df18fbf6f0ec412",
      "transactionType": "CALL",
      "contractName": null,
      "contractAddress": "0x6f4d4cfd81350fcb76328cd51b2a801365fa7600",
      "function": "approve(address,uint256)",
      "arguments": [
        "0x8Da2919bA1DF8B71318352bE9922BEEeDa27f3C7",
        "117"
      ],
      "transaction": {
        "from": "0x380b2bbc84629128faae8664327780465b90601d",
        "to": "0x6f4d4cfd81350fcb76328cd51b2a801365fa7600",
        "gas": "0x110c6",
        "value": "0x0",
        "input": "0x095ea7b30000000000000000000000008da2919ba1df8b71318352be9922beeeda27f3c70000000000000000000000000000000000000000000000000000000000000075",
        "nonce": "0xc",
        "chainId": "0x14a34"
      },
      "additionalContracts": [],
      "isFixedGasLimit": false
    },
    {
      "hash": "0x786ee8de2295a45a7ef0be7b0b7d71c83d1996e75cfca498c978091a90f58866",
      "transactionType": "CALL",
      "contractName": null,
      "contractAddress": "0x8da2919ba1df8b71318352be9922beeeda27f3c7",
      "function": "send((uint32,bytes32,uint256,bytes,bytes,bytes),(uint256,uint256),address)",
      "arguments": [
        "(40231, 0x000000000000000000000000380b2bbc84629128faae8664327780465b90601d, 117, 0x000301001101000000000000000000000000000493e0, 0x, 0x)",
        "(147868593625870, 0)",
        "0x5b73C5498c1E3b4dbA84de0F1833c4a029d90519"
      ],
      "transaction": {
        "from": "0x380b2bbc84629128faae8664327780465b90601d",
        "to": "0x8da2919ba1df8b71318352be9922beeeda27f3c7",
        "gas": "0x5da63",
        "value": "0x867c56ff1b0e",
        "input": "0x21eb730b00000000000000000000000000000000000000000000000000000000000000800000000000000000000000000000000000000000000000000000867c56ff1b0e00000000000000000000000000000000000000000000000000000000000000000000000000000000000000005b73c5498c1e3b4dba84de0f1833c4a029d905190000000000000000000000000000000000000000000000000000000000009d27000000000000000000000000380b2bbc84629128faae8664327780465b90601d000000000000000000000000000000000000000000000000000000000000007500000000000000000000000000000000000000000000000000000000000000c0000000000000000000000000000000000000000000000000000000000000010000000000000000000000000000000000000000000000000000000000000001200000000000000000000000000000000000000000000000000000000000000016000301001101000000000000000000000000000493e00000000000000000000000000000000000000000000000000000000000000000000000000000000000000000000000000000000000000000000000000000000000000000000000000000",
        "nonce": "0xd",
        "chainId": "0x14a34"
      },
      "additionalContracts": [],
      "isFixedGasLimit": false
    }
  ],
  "receipts": [
    {
      "status": "0x1",
      "cumulativeGasUsed": "0x66df59",
      "logs": [
        {
          "address": "0x6f4d4cfd81350fcb76328cd51b2a801365fa7600",
          "topics": [
            "0x8c5be1e5ebec7d5bd14f71427d1e84f3dd0314c0f7b2291e5b200ac8c7c3b925",
            "0x000000000000000000000000380b2bbc84629128faae8664327780465b90601d",
            "0x0000000000000000000000008da2919ba1df8b71318352be9922beeeda27f3c7",
            "0x0000000000000000000000000000000000000000000000000000000000000075"
          ],
          "data": "0x",
          "blockHash": "0xa20c30aa18ffba5bc53424f30dded01156803f783d11c2b8633f56ff857d8e17",
          "blockNumber": "0x15bbb71",
          "transactionHash": "0xe9aa42dd068ffe5c0f4a5c6eca0568e193e62c1ba8d7cfc51df18fbf6f0ec412",
          "transactionIndex": "0x2e",
          "logIndex": "0xb2",
          "removed": false
        }
      ],
      "logsBloom": "0x00000000000000000000000000000000000000000000000000000000000000000000000000000000000000000000000000000000000000000000000000a00000000000000000000000000000000000010000000000000000000000000000000000000000000040000000000000000000000000000000000000000000000000000000000000000000000000000100000000000400000000000000000000000000020000100008000000000000000020000800000000000000000000000000000000000000000000100000000000000000002000000000000000000000000000000010000000000000000000000000000000000020000000000000000000000000",
      "type": "0x2",
      "transactionHash": "0xe9aa42dd068ffe5c0f4a5c6eca0568e193e62c1ba8d7cfc51df18fbf6f0ec412",
      "transactionIndex": "0x2e",
      "blockHash": "0xa20c30aa18ffba5bc53424f30dded01156803f783d11c2b8633f56ff857d8e17",
      "blockNumber": "0x15bbb71",
      "gasUsed": "0xc57d",
      "effectiveGasPrice": "0xf366b",
      "from": "0x380b2bbc84629128faae8664327780465b90601d",
      "to": "0x6f4d4cfd81350fcb76328cd51b2a801365fa7600",
      "contractAddress": null,
      "l1BaseFeeScalar": "0x44d",
      "l1BlobBaseFee": "0x1",
      "l1BlobBaseFeeScalar": "0xa118b",
      "l1Fee": "0x1ca14c",
      "l1GasPrice": "0x104072",
      "l1GasUsed": "0x640"
    }
  ],
  "libraries": [],
  "pending": [],
  "returns": {},
  "timestamp": 1741346242,
  "chain": 84532,
  "commit": "74f7a03"
}